{
  "_format": "hh-sol-artifact-1",
  "contractName": "P2PEscrow",
  "sourceName": "contracts/P2PEscrow.sol",
  "abi": [
    {
      "inputs": [
        {
          "internalType": "address",
          "name": "_usdtAddress",
          "type": "address"
        }
      ],
      "stateMutability": "nonpayable",
      "type": "constructor"
    },
    {
      "inputs": [
        {
          "internalType": "address",
          "name": "owner",
          "type": "address"
        }
      ],
      "name": "OwnableInvalidOwner",
      "type": "error"
    },
    {
      "inputs": [
        {
          "internalType": "address",
          "name": "account",
          "type": "address"
        }
      ],
      "name": "OwnableUnauthorizedAccount",
      "type": "error"
    },
    {
      "anonymous": false,
      "inputs": [
        {
          "indexed": true,
          "internalType": "bytes32",
          "name": "orderId",
          "type": "bytes32"
        },
        {
          "indexed": true,
          "internalType": "address",
          "name": "depositor",
          "type": "address"
        },
        {
          "indexed": true,
          "internalType": "address",
          "name": "recipient",
          "type": "address"
        },
        {
          "indexed": false,
          "internalType": "uint256",
          "name": "amount",
          "type": "uint256"
        }
      ],
      "name": "EscrowLocked",
      "type": "event"
    },
    {
      "anonymous": false,
      "inputs": [
        {
          "indexed": true,
          "internalType": "bytes32",
          "name": "orderId",
          "type": "bytes32"
        },
        {
          "indexed": true,
          "internalType": "address",
          "name": "depositor",
          "type": "address"
        },
        {
          "indexed": false,
          "internalType": "uint256",
          "name": "amount",
          "type": "uint256"
        }
      ],
      "name": "EscrowRefunded",
      "type": "event"
    },
    {
      "anonymous": false,
      "inputs": [
        {
          "indexed": true,
          "internalType": "bytes32",
          "name": "orderId",
          "type": "bytes32"
        },
        {
          "indexed": true,
          "internalType": "address",
          "name": "recipient",
          "type": "address"
        },
        {
          "indexed": false,
          "internalType": "uint256",
          "name": "amount",
          "type": "uint256"
        }
      ],
      "name": "EscrowReleased",
      "type": "event"
    },
    {
      "anonymous": false,
      "inputs": [
        {
          "indexed": true,
          "internalType": "address",
          "name": "previousOwner",
          "type": "address"
        },
        {
          "indexed": true,
          "internalType": "address",
          "name": "newOwner",
          "type": "address"
        }
      ],
      "name": "OwnershipTransferred",
      "type": "event"
    },
    {
      "inputs": [
        {
          "internalType": "bytes32",
          "name": "orderId",
          "type": "bytes32"
        },
        {
          "internalType": "uint256",
          "name": "amount",
          "type": "uint256"
        },
        {
          "internalType": "address",
          "name": "recipient",
          "type": "address"
        }
      ],
      "name": "deposit",
      "outputs": [],
      "stateMutability": "nonpayable",
      "type": "function"
    },
    {
      "inputs": [
        {
          "internalType": "bytes32",
          "name": "",
          "type": "bytes32"
        }
      ],
      "name": "escrows",
      "outputs": [
        {
          "internalType": "uint256",
          "name": "amount",
          "type": "uint256"
        },
        {
          "internalType": "address",
          "name": "depositor",
          "type": "address"
        },
        {
          "internalType": "address",
          "name": "intendedRecipient",
          "type": "address"
        },
        {
          "internalType": "enum P2PEscrow.EscrowStatus",
          "name": "status",
          "type": "uint8"
        }
      ],
      "stateMutability": "view",
      "type": "function"
    },
    {
      "inputs": [],
      "name": "owner",
      "outputs": [
        {
          "internalType": "address",
          "name": "",
          "type": "address"
        }
      ],
      "stateMutability": "view",
      "type": "function"
    },
    {
      "inputs": [
        {
          "internalType": "bytes32",
          "name": "orderId",
          "type": "bytes32"
        }
      ],
      "name": "refund",
      "outputs": [],
      "stateMutability": "nonpayable",
      "type": "function"
    },
    {
      "inputs": [
        {
          "internalType": "bytes32",
          "name": "orderId",
          "type": "bytes32"
        }
      ],
      "name": "release",
      "outputs": [],
      "stateMutability": "nonpayable",
      "type": "function"
    },
    {
      "inputs": [],
      "name": "renounceOwnership",
      "outputs": [],
      "stateMutability": "nonpayable",
      "type": "function"
    },
    {
      "inputs": [
        {
          "internalType": "address",
          "name": "newOwner",
          "type": "address"
        }
      ],
      "name": "transferOwnership",
      "outputs": [],
      "stateMutability": "nonpayable",
      "type": "function"
    },
    {
      "inputs": [],
      "name": "usdt",
      "outputs": [
        {
          "internalType": "contract IERC20",
          "name": "",
          "type": "address"
        }
      ],
      "stateMutability": "view",
      "type": "function"
    }
  ],
  "bytecode": "0x60806040523480156200001157600080fd5b506040516200174e3803806200174e833981810160405281019062000037919062000235565b33600073ffffffffffffffffffffffffffffffffffffffff168173ffffffffffffffffffffffffffffffffffffffff1603620000ad5760006040517f1e4fbdf7000000000000000000000000000000000000000000000000000000008152600401620000a4919062000278565b60405180910390fd5b620000be816200010760201b60201c565b5080600160006101000a81548173ffffffffffffffffffffffffffffffffffffffff021916908373ffffffffffffffffffffffffffffffffffffffff1602179055505062000295565b60008060009054906101000a900473ffffffffffffffffffffffffffffffffffffffff169050816000806101000a81548173ffffffffffffffffffffffffffffffffffffffff021916908373ffffffffffffffffffffffffffffffffffffffff1602179055508173ffffffffffffffffffffffffffffffffffffffff168173ffffffffffffffffffffffffffffffffffffffff167f8be0079c531659141344cd1fd0a4f28419497f9722a3daafe3b4186f6b6457e060405160405180910390a35050565b600080fd5b600073ffffffffffffffffffffffffffffffffffffffff82169050919050565b6000620001fd82620001d0565b9050919050565b6200020f81620001f0565b81146200021b57600080fd5b50565b6000815190506200022f8162000204565b92915050565b6000602082840312156200024e576200024d620001cb565b5b60006200025e848285016200021e565b91505092915050565b6200027281620001f0565b82525050565b60006020820190506200028f600083018462000267565b92915050565b6114a980620002a56000396000f3fe608060405234801561001057600080fd5b50600436106100885760003560e01c8063715018a61161005b578063715018a6146101165780637249fbb6146101205780638da5cb5b1461013c578063f2fde38b1461015a57610088565b80632d83549c1461008d5780632f48ab7d146100c057806367d42a8b146100de5780636ebf181b146100fa575b600080fd5b6100a760048036038101906100a29190610e4a565b610176565b6040516100b79493929190610f48565b60405180910390f35b6100c86101f3565b6040516100d59190610fec565b60405180910390f35b6100f860048036038101906100f39190610e4a565b610219565b005b610114600480360381019061010f919061105f565b610526565b005b61011e6108ec565b005b61013a60048036038101906101359190610e4a565b610900565b005b610144610c0d565b60405161015191906110b2565b60405180910390f35b610174600480360381019061016f91906110cd565b610c36565b005b60026020528060005260406000206000915090508060000154908060010160009054906101000a900473ffffffffffffffffffffffffffffffffffffffff16908060020160009054906101000a900473ffffffffffffffffffffffffffffffffffffffff16908060020160149054906101000a900460ff16905084565b600160009054906101000a900473ffffffffffffffffffffffffffffffffffffffff1681565b60006002600083815260200190815260200160002090506001600381111561024457610243610ed1565b5b8160020160149054906101000a900460ff16600381111561026857610267610ed1565b5b146102a8576040517f08c379a000000000000000000000000000000000000000000000000000000000815260040161029f90611157565b60405180910390fd5b8060010160009054906101000a900473ffffffffffffffffffffffffffffffffffffffff1673ffffffffffffffffffffffffffffffffffffffff163373ffffffffffffffffffffffffffffffffffffffff1614806103385750610309610c0d565b73ffffffffffffffffffffffffffffffffffffffff163373ffffffffffffffffffffffffffffffffffffffff16145b610377576040517f08c379a000000000000000000000000000000000000000000000000000000000815260040161036e906111c3565b60405180910390fd5b60028160020160146101000a81548160ff0219169083600381111561039f5761039e610ed1565b5b0217905550600160009054906101000a900473ffffffffffffffffffffffffffffffffffffffff1673ffffffffffffffffffffffffffffffffffffffff1663a9059cbb8260020160009054906101000a900473ffffffffffffffffffffffffffffffffffffffff1683600001546040518363ffffffff1660e01b81526004016104299291906111e3565b6020604051808303816000875af1158015610448573d6000803e3d6000fd5b505050506040513d601f19601f8201168201806040525081019061046c9190611244565b6104ab576040517f08c379a00000000000000000000000000000000000000000000000000000000081526004016104a2906112bd565b60405180910390fd5b8060020160009054906101000a900473ffffffffffffffffffffffffffffffffffffffff1673ffffffffffffffffffffffffffffffffffffffff16827f3a9c1cd29cd3be251a72ce3c367c27dc1cb697ac4589965b76a83f9a25ca0710836000015460405161051a91906112dd565b60405180910390a35050565b6000600381111561053a57610539610ed1565b5b6002600085815260200190815260200160002060020160149054906101000a900460ff1660038111156105705761056f610ed1565b5b146105b0576040517f08c379a00000000000000000000000000000000000000000000000000000000081526004016105a790611344565b60405180910390fd5b600082116105f3576040517f08c379a00000000000000000000000000000000000000000000000000000000081526004016105ea906113b0565b60405180910390fd5b600073ffffffffffffffffffffffffffffffffffffffff168173ffffffffffffffffffffffffffffffffffffffff1603610662576040517f08c379a00000000000000000000000000000000000000000000000000000000081526004016106599061141c565b60405180910390fd5b60405180608001604052808381526020013373ffffffffffffffffffffffffffffffffffffffff1681526020018273ffffffffffffffffffffffffffffffffffffffff168152602001600160038111156106bf576106be610ed1565b5b815250600260008581526020019081526020016000206000820151816000015560208201518160010160006101000a81548173ffffffffffffffffffffffffffffffffffffffff021916908373ffffffffffffffffffffffffffffffffffffffff16021790555060408201518160020160006101000a81548173ffffffffffffffffffffffffffffffffffffffff021916908373ffffffffffffffffffffffffffffffffffffffff16021790555060608201518160020160146101000a81548160ff0219169083600381111561079857610797610ed1565b5b0217905550905050600160009054906101000a900473ffffffffffffffffffffffffffffffffffffffff1673ffffffffffffffffffffffffffffffffffffffff166323b872dd3330856040518463ffffffff1660e01b81526004016107ff9392919061143c565b6020604051808303816000875af115801561081e573d6000803e3d6000fd5b505050506040513d601f19601f820116820180604052508101906108429190611244565b610881576040517f08c379a0000000000000000000000000000000000000000000000000000000008152600401610878906112bd565b60405180910390fd5b8073ffffffffffffffffffffffffffffffffffffffff163373ffffffffffffffffffffffffffffffffffffffff16847f67c0e575ec33936baed68573e9d18e8b31c02795c3f40245305cced991ea1f36856040516108df91906112dd565b60405180910390a4505050565b6108f4610cbc565b6108fe6000610d43565b565b60006002600083815260200190815260200160002090506001600381111561092b5761092a610ed1565b5b8160020160149054906101000a900460ff16600381111561094f5761094e610ed1565b5b1461098f576040517f08c379a000000000000000000000000000000000000000000000000000000000815260040161098690611157565b60405180910390fd5b8060020160009054906101000a900473ffffffffffffffffffffffffffffffffffffffff1673ffffffffffffffffffffffffffffffffffffffff163373ffffffffffffffffffffffffffffffffffffffff161480610a1f57506109f0610c0d565b73ffffffffffffffffffffffffffffffffffffffff163373ffffffffffffffffffffffffffffffffffffffff16145b610a5e576040517f08c379a0000000000000000000000000000000000000000000000000000000008152600401610a55906111c3565b60405180910390fd5b60038160020160146101000a81548160ff02191690836003811115610a8657610a85610ed1565b5b0217905550600160009054906101000a900473ffffffffffffffffffffffffffffffffffffffff1673ffffffffffffffffffffffffffffffffffffffff1663a9059cbb8260010160009054906101000a900473ffffffffffffffffffffffffffffffffffffffff1683600001546040518363ffffffff1660e01b8152600401610b109291906111e3565b6020604051808303816000875af1158015610b2f573d6000803e3d6000fd5b505050506040513d601f19601f82011682018060405250810190610b539190611244565b610b92576040517f08c379a0000000000000000000000000000000000000000000000000000000008152600401610b89906112bd565b60405180910390fd5b8060010160009054906101000a900473ffffffffffffffffffffffffffffffffffffffff1673ffffffffffffffffffffffffffffffffffffffff16827ffc31a7ddbe933aa6e67f3c98c183fbc87addd2b602fcfb10238d2f85cf0266178360000154604051610c0191906112dd565b60405180910390a35050565b60008060009054906101000a900473ffffffffffffffffffffffffffffffffffffffff16905090565b610c3e610cbc565b600073ffffffffffffffffffffffffffffffffffffffff168173ffffffffffffffffffffffffffffffffffffffff1603610cb05760006040517f1e4fbdf7000000000000000000000000000000000000000000000000000000008152600401610ca791906110b2565b60405180910390fd5b610cb981610d43565b50565b610cc4610e07565b73ffffffffffffffffffffffffffffffffffffffff16610ce2610c0d565b73ffffffffffffffffffffffffffffffffffffffff1614610d4157610d05610e07565b6040517f118cdaa7000000000000000000000000000000000000000000000000000000008152600401610d3891906110b2565b60405180910390fd5b565b60008060009054906101000a900473ffffffffffffffffffffffffffffffffffffffff169050816000806101000a81548173ffffffffffffffffffffffffffffffffffffffff021916908373ffffffffffffffffffffffffffffffffffffffff1602179055508173ffffffffffffffffffffffffffffffffffffffff168173ffffffffffffffffffffffffffffffffffffffff167f8be0079c531659141344cd1fd0a4f28419497f9722a3daafe3b4186f6b6457e060405160405180910390a35050565b600033905090565b600080fd5b6000819050919050565b610e2781610e14565b8114610e3257600080fd5b50565b600081359050610e4481610e1e565b92915050565b600060208284031215610e6057610e5f610e0f565b5b6000610e6e84828501610e35565b91505092915050565b6000819050919050565b610e8a81610e77565b82525050565b600073ffffffffffffffffffffffffffffffffffffffff82169050919050565b6000610ebb82610e90565b9050919050565b610ecb81610eb0565b82525050565b7f4e487b7100000000000000000000000000000000000000000000000000000000600052602160045260246000fd5b60048110610f1157610f10610ed1565b5b50565b6000819050610f2282610f00565b919050565b6000610f3282610f14565b9050919050565b610f4281610f27565b82525050565b6000608082019050610f5d6000830187610e81565b610f6a6020830186610ec2565b610f776040830185610ec2565b610f846060830184610f39565b95945050505050565b6000819050919050565b6000610fb2610fad610fa884610e90565b610f8d565b610e90565b9050919050565b6000610fc482610f97565b9050919050565b6000610fd682610fb9565b9050919050565b610fe681610fcb565b82525050565b60006020820190506110016000830184610fdd565b92915050565b61101081610e77565b811461101b57600080fd5b50565b60008135905061102d81611007565b92915050565b61103c81610eb0565b811461104757600080fd5b50565b60008135905061105981611033565b92915050565b60008060006060848603121561107857611077610e0f565b5b600061108686828701610e35565b93505060206110978682870161101e565b92505060406110a88682870161104a565b9150509250925092565b60006020820190506110c76000830184610ec2565b92915050565b6000602082840312156110e3576110e2610e0f565b5b60006110f18482850161104a565b91505092915050565b600082825260208201905092915050565b7f457363726f77206e6f74206c6f636b6564000000000000000000000000000000600082015250565b60006111416011836110fa565b915061114c8261110b565b602082019050919050565b6000602082019050818103600083015261117081611134565b9050919050565b7f4e6f7420617574686f72697a6564000000000000000000000000000000000000600082015250565b60006111ad600e836110fa565b91506111b882611177565b602082019050919050565b600060208201905081810360008301526111dc816111a0565b9050919050565b60006040820190506111f86000830185610ec2565b6112056020830184610e81565b9392505050565b60008115159050919050565b6112218161120c565b811461122c57600080fd5b50565b60008151905061123e81611218565b92915050565b60006020828403121561125a57611259610e0f565b5b60006112688482850161122f565b91505092915050565b7f5472616e73666572206661696c65640000000000000000000000000000000000600082015250565b60006112a7600f836110fa565b91506112b282611271565b602082019050919050565b600060208201905081810360008301526112d68161129a565b9050919050565b60006020820190506112f26000830184610e81565b92915050565b7f457363726f7720616c7265616479206578697374730000000000000000000000600082015250565b600061132e6015836110fa565b9150611339826112f8565b602082019050919050565b6000602082019050818103600083015261135d81611321565b9050919050565b7f416d6f756e74206d7573742062652067726561746572207468616e2030000000600082015250565b600061139a601d836110fa565b91506113a582611364565b602082019050919050565b600060208201905081810360008301526113c98161138d565b9050919050565b7f496e76616c696420726563697069656e74000000000000000000000000000000600082015250565b60006114066011836110fa565b9150611411826113d0565b602082019050919050565b60006020820190508181036000830152611435816113f9565b9050919050565b60006060820190506114516000830186610ec2565b61145e6020830185610ec2565b61146b6040830184610e81565b94935050505056fea2646970667358221220befa2e8702c4080817c511ae44a8b2b83036024c21bb70fba5ba5381475561be64736f6c63430008140033",
  "linkReferences": {},
  "deployedLinkReferences": {}
}